{
  "_format": "hh-sol-artifact-1",
  "contractName": "Level",
  "sourceName": "contracts/Level.sol",
  "abi": [
    {
      "inputs": [],
      "stateMutability": "nonpayable",
      "type": "constructor"
    },
    {
      "anonymous": false,
      "inputs": [
        {
          "indexed": true,
          "internalType": "address",
          "name": "owner",
          "type": "address"
        },
        {
          "indexed": true,
          "internalType": "address",
          "name": "approved",
          "type": "address"
        },
        {
          "indexed": true,
          "internalType": "uint256",
          "name": "tokenId",
          "type": "uint256"
        }
      ],
      "name": "Approval",
      "type": "event"
    },
    {
      "anonymous": false,
      "inputs": [
        {
          "indexed": true,
          "internalType": "address",
          "name": "owner",
          "type": "address"
        },
        {
          "indexed": true,
          "internalType": "address",
          "name": "operator",
          "type": "address"
        },
        {
          "indexed": false,
          "internalType": "bool",
          "name": "approved",
          "type": "bool"
        }
      ],
      "name": "ApprovalForAll",
      "type": "event"
    },
    {
      "anonymous": false,
      "inputs": [
        {
          "indexed": true,
          "internalType": "address",
          "name": "previousOwner",
          "type": "address"
        },
        {
          "indexed": true,
          "internalType": "address",
          "name": "newOwner",
          "type": "address"
        }
      ],
      "name": "OwnershipTransferred",
      "type": "event"
    },
    {
      "anonymous": false,
      "inputs": [
        {
          "indexed": true,
          "internalType": "address",
          "name": "from",
          "type": "address"
        },
        {
          "indexed": true,
          "internalType": "address",
          "name": "to",
          "type": "address"
        },
        {
          "indexed": true,
          "internalType": "uint256",
          "name": "tokenId",
          "type": "uint256"
        }
      ],
      "name": "Transfer",
      "type": "event"
    },
    {
      "inputs": [
        {
          "internalType": "address",
          "name": "to",
          "type": "address"
        },
        {
          "internalType": "uint256",
          "name": "tokenId",
          "type": "uint256"
        }
      ],
      "name": "approve",
      "outputs": [],
      "stateMutability": "nonpayable",
      "type": "function"
    },
    {
      "inputs": [
        {
          "internalType": "address",
          "name": "owner",
          "type": "address"
        }
      ],
      "name": "balanceOf",
      "outputs": [
        {
          "internalType": "uint256",
          "name": "",
          "type": "uint256"
        }
      ],
      "stateMutability": "view",
      "type": "function"
    },
    {
      "inputs": [
        {
          "internalType": "uint256",
          "name": "tokenId",
          "type": "uint256"
        }
      ],
      "name": "getApproved",
      "outputs": [
        {
          "internalType": "address",
          "name": "",
          "type": "address"
        }
      ],
      "stateMutability": "view",
      "type": "function"
    },
    {
      "inputs": [
        {
          "internalType": "address",
          "name": "owner",
          "type": "address"
        },
        {
          "internalType": "address",
          "name": "operator",
          "type": "address"
        }
      ],
      "name": "isApprovedForAll",
      "outputs": [
        {
          "internalType": "bool",
          "name": "",
          "type": "bool"
        }
      ],
      "stateMutability": "view",
      "type": "function"
    },
    {
      "inputs": [],
      "name": "mint",
      "outputs": [
        {
          "internalType": "uint256",
          "name": "",
          "type": "uint256"
        }
      ],
      "stateMutability": "payable",
      "type": "function"
    },
    {
      "inputs": [],
      "name": "name",
      "outputs": [
        {
          "internalType": "string",
          "name": "",
          "type": "string"
        }
      ],
      "stateMutability": "view",
      "type": "function"
    },
    {
      "inputs": [],
      "name": "owner",
      "outputs": [
        {
          "internalType": "address",
          "name": "",
          "type": "address"
        }
      ],
      "stateMutability": "view",
      "type": "function"
    },
    {
      "inputs": [
        {
          "internalType": "uint256",
          "name": "tokenId",
          "type": "uint256"
        }
      ],
      "name": "ownerOf",
      "outputs": [
        {
          "internalType": "address",
          "name": "",
          "type": "address"
        }
      ],
      "stateMutability": "view",
      "type": "function"
    },
    {
      "inputs": [],
      "name": "renounceOwnership",
      "outputs": [],
      "stateMutability": "nonpayable",
      "type": "function"
    },
    {
      "inputs": [
        {
          "internalType": "address",
          "name": "from",
          "type": "address"
        },
        {
          "internalType": "address",
          "name": "to",
          "type": "address"
        },
        {
          "internalType": "uint256",
          "name": "tokenId",
          "type": "uint256"
        }
      ],
      "name": "safeTransferFrom",
      "outputs": [],
      "stateMutability": "nonpayable",
      "type": "function"
    },
    {
      "inputs": [
        {
          "internalType": "address",
          "name": "from",
          "type": "address"
        },
        {
          "internalType": "address",
          "name": "to",
          "type": "address"
        },
        {
          "internalType": "uint256",
          "name": "tokenId",
          "type": "uint256"
        },
        {
          "internalType": "bytes",
          "name": "_data",
          "type": "bytes"
        }
      ],
      "name": "safeTransferFrom",
      "outputs": [],
      "stateMutability": "nonpayable",
      "type": "function"
    },
    {
      "inputs": [
        {
          "internalType": "address",
          "name": "operator",
          "type": "address"
        },
        {
          "internalType": "bool",
          "name": "approved",
          "type": "bool"
        }
      ],
      "name": "setApprovalForAll",
      "outputs": [],
      "stateMutability": "nonpayable",
      "type": "function"
    },
    {
      "inputs": [
        {
          "internalType": "string",
          "name": "baseURI_",
          "type": "string"
        }
      ],
      "name": "setBaseURI",
      "outputs": [
        {
          "internalType": "string",
          "name": "",
          "type": "string"
        }
      ],
      "stateMutability": "nonpayable",
      "type": "function"
    },
    {
      "inputs": [
        {
          "internalType": "bytes4",
          "name": "interfaceId",
          "type": "bytes4"
        }
      ],
      "name": "supportsInterface",
      "outputs": [
        {
          "internalType": "bool",
          "name": "",
          "type": "bool"
        }
      ],
      "stateMutability": "view",
      "type": "function"
    },
    {
      "inputs": [],
      "name": "symbol",
      "outputs": [
        {
          "internalType": "string",
          "name": "",
          "type": "string"
        }
      ],
      "stateMutability": "view",
      "type": "function"
    },
    {
      "inputs": [
        {
          "internalType": "address",
          "name": "owner",
          "type": "address"
        }
      ],
      "name": "tokenOfOwner",
      "outputs": [
        {
          "internalType": "uint256",
          "name": "",
          "type": "uint256"
        }
      ],
      "stateMutability": "view",
      "type": "function"
    },
    {
      "inputs": [
        {
          "internalType": "uint256",
          "name": "tokenId",
          "type": "uint256"
        }
      ],
      "name": "tokenURI",
      "outputs": [
        {
          "internalType": "string",
          "name": "",
          "type": "string"
        }
      ],
      "stateMutability": "view",
      "type": "function"
    },
    {
      "inputs": [],
      "name": "totalSupply",
      "outputs": [
        {
          "internalType": "uint256",
          "name": "",
          "type": "uint256"
        }
      ],
      "stateMutability": "view",
      "type": "function"
    },
    {
      "inputs": [
        {
          "internalType": "address",
          "name": "from",
          "type": "address"
        },
        {
          "internalType": "address",
          "name": "to",
          "type": "address"
        },
        {
          "internalType": "uint256",
          "name": "tokenId",
          "type": "uint256"
        }
      ],
      "name": "transferFrom",
      "outputs": [],
      "stateMutability": "nonpayable",
      "type": "function"
    },
    {
      "inputs": [
        {
          "internalType": "address",
          "name": "newOwner",
          "type": "address"
        }
      ],
      "name": "transferOwnership",
      "outputs": [],
      "stateMutability": "nonpayable",
      "type": "function"
    }
  ],
  "bytecode": "0x60806040523480156200001157600080fd5b506040518060400160405280600581526020017f4c6576656c0000000000000000000000000000000000000000000000000000008152506040518060400160405280600581526020017f4c4556454c000000000000000000000000000000000000000000000000000000815250816000908051906020019062000096929190620001f4565b508060019080519060200190620000af929190620001f4565b505050620000d2620000c66200012660201b60201c565b6200012e60201b60201c565b6040518060400160405280601e81526020017f68747470733a2f2f6c6576656c2e32632e696f2f6170692f746f6b656e2f0000815250600890805190602001906200011f929190620001f4565b5062000309565b600033905090565b6000600660009054906101000a900473ffffffffffffffffffffffffffffffffffffffff16905081600660006101000a81548173ffffffffffffffffffffffffffffffffffffffff021916908373ffffffffffffffffffffffffffffffffffffffff1602179055508173ffffffffffffffffffffffffffffffffffffffff168173ffffffffffffffffffffffffffffffffffffffff167f8be0079c531659141344cd1fd0a4f28419497f9722a3daafe3b4186f6b6457e060405160405180910390a35050565b8280546200020290620002a4565b90600052602060002090601f01602090048101928262000226576000855562000272565b82601f106200024157805160ff191683800117855562000272565b8280016001018555821562000272579182015b828111156200027157825182559160200191906001019062000254565b5b50905062000281919062000285565b5090565b5b80821115620002a057600081600090555060010162000286565b5090565b60006002820490506001821680620002bd57607f821691505b60208210811415620002d457620002d3620002da565b5b50919050565b7f4e487b7100000000000000000000000000000000000000000000000000000000600052602260045260246000fd5b61318580620003196000396000f3fe60806040526004361061011f5760003560e01c80636352211e116100a0578063a22cb46511610064578063a22cb465146103ee578063b88d4fde14610417578063c87b56dd14610440578063e985e9c51461047d578063f2fde38b146104ba5761011f565b80636352211e1461030757806370a0823114610344578063715018a6146103815780638da5cb5b1461039857806395d89b41146103c35761011f565b806318160ddd116100e757806318160ddd1461021057806323b872dd1461023b578063294cdf0d1461026457806342842e0e146102a157806355f804b3146102ca5761011f565b806301ffc9a71461012457806306fdde0314610161578063081812fc1461018c578063095ea7b3146101c95780631249c58b146101f2575b600080fd5b34801561013057600080fd5b5061014b60048036038101906101469190612192565b6104e3565b6040516101589190612a7d565b60405180910390f35b34801561016d57600080fd5b506101766105c5565b6040516101839190612a98565b60405180910390f35b34801561019857600080fd5b506101b360048036038101906101ae9190612225565b610657565b6040516101c09190612a16565b60405180910390f35b3480156101d557600080fd5b506101f060048036038101906101eb9190612156565b6106dc565b005b6101fa6107f4565b6040516102079190612d1a565b60405180910390f35b34801561021c57600080fd5b506102256108ad565b6040516102329190612d1a565b60405180910390f35b34801561024757600080fd5b50610262600480360381019061025d9190612050565b6108be565b005b34801561027057600080fd5b5061028b60048036038101906102869190611feb565b61091e565b6040516102989190612d1a565b60405180910390f35b3480156102ad57600080fd5b506102c860048036038101906102c39190612050565b6109b2565b005b3480156102d657600080fd5b506102f160048036038101906102ec91906121e4565b6109d2565b6040516102fe9190612a98565b60405180910390f35b34801561031357600080fd5b5061032e60048036038101906103299190612225565b610af9565b60405161033b9190612a16565b60405180910390f35b34801561035057600080fd5b5061036b60048036038101906103669190611feb565b610bab565b6040516103789190612d1a565b60405180910390f35b34801561038d57600080fd5b50610396610c63565b005b3480156103a457600080fd5b506103ad610ceb565b6040516103ba9190612a16565b60405180910390f35b3480156103cf57600080fd5b506103d8610d15565b6040516103e59190612a98565b60405180910390f35b3480156103fa57600080fd5b506104156004803603810190610410919061211a565b610da7565b005b34801561042357600080fd5b5061043e6004803603810190610439919061209f565b610f28565b005b34801561044c57600080fd5b5061046760048036038101906104629190612225565b610f8a565b6040516104749190612a98565b60405180910390f35b34801561048957600080fd5b506104a4600480360381019061049f9190612014565b611031565b6040516104b19190612a7d565b60405180910390f35b3480156104c657600080fd5b506104e160048036038101906104dc9190611feb565b6110c5565b005b60007f80ac58cd000000000000000000000000000000000000000000000000000000007bffffffffffffffffffffffffffffffffffffffffffffffffffffffff1916827bffffffffffffffffffffffffffffffffffffffffffffffffffffffff191614806105ae57507f5b5e139f000000000000000000000000000000000000000000000000000000007bffffffffffffffffffffffffffffffffffffffffffffffffffffffff1916827bffffffffffffffffffffffffffffffffffffffffffffffffffffffff1916145b806105be57506105bd826111bd565b5b9050919050565b6060600080546105d490612f7a565b80601f016020809104026020016040519081016040528092919081815260200182805461060090612f7a565b801561064d5780601f106106225761010080835404028352916020019161064d565b820191906000526020600020905b81548152906001019060200180831161063057829003601f168201915b5050505050905090565b600061066282611227565b6106a1576040517f08c379a000000000000000000000000000000000000000000000000000000000815260040161069890612bfa565b60405180910390fd5b6004600083815260200190815260200160002060009054906101000a900473ffffffffffffffffffffffffffffffffffffffff169050919050565b60006106e782610af9565b90508073ffffffffffffffffffffffffffffffffffffffff168373ffffffffffffffffffffffffffffffffffffffff161415610758576040517f08c379a000000000000000000000000000000000000000000000000000000000815260040161074f90612c7a565b60405180910390fd5b8073ffffffffffffffffffffffffffffffffffffffff16610777611293565b73ffffffffffffffffffffffffffffffffffffffff1614806107a657506107a5816107a0611293565b611031565b5b6107e5576040517f08c379a00000000000000000000000000000000000000000000000000000000081526004016107dc90612b7a565b60405180910390fd5b6107ef838361129b565b505050565b60008061080033610bab565b14610840576040517f08c379a000000000000000000000000000000000000000000000000000000000815260040161083790612c9a565b60405180910390fd5b600061084c6007611354565b90506108583382611362565b80600960003373ffffffffffffffffffffffffffffffffffffffff1673ffffffffffffffffffffffffffffffffffffffff168152602001908152602001600020819055506108a66007611530565b8091505090565b60006108b96007611354565b905090565b6108cf6108c9611293565b82611546565b61090e576040517f08c379a000000000000000000000000000000000000000000000000000000000815260040161090590612cda565b60405180910390fd5b610919838383611624565b505050565b6000600161092b83610bab565b1461096b576040517f08c379a000000000000000000000000000000000000000000000000000000000815260040161096290612cba565b60405180910390fd5b600960008373ffffffffffffffffffffffffffffffffffffffff1673ffffffffffffffffffffffffffffffffffffffff168152602001908152602001600020549050919050565b6109cd83838360405180602001604052806000815250610f28565b505050565b60606109dc611293565b73ffffffffffffffffffffffffffffffffffffffff166109fa610ceb565b73ffffffffffffffffffffffffffffffffffffffff1614610a50576040517f08c379a0000000000000000000000000000000000000000000000000000000008152600401610a4790612c1a565b60405180910390fd5b8160089080519060200190610a66929190611e0f565b5060088054610a7490612f7a565b80601f0160208091040260200160405190810160405280929190818152602001828054610aa090612f7a565b8015610aed5780601f10610ac257610100808354040283529160200191610aed565b820191906000526020600020905b815481529060010190602001808311610ad057829003601f168201915b50505050509050919050565b6000806002600084815260200190815260200160002060009054906101000a900473ffffffffffffffffffffffffffffffffffffffff169050600073ffffffffffffffffffffffffffffffffffffffff168173ffffffffffffffffffffffffffffffffffffffff161415610ba2576040517f08c379a0000000000000000000000000000000000000000000000000000000008152600401610b9990612bba565b60405180910390fd5b80915050919050565b60008073ffffffffffffffffffffffffffffffffffffffff168273ffffffffffffffffffffffffffffffffffffffff161415610c1c576040517f08c379a0000000000000000000000000000000000000000000000000000000008152600401610c1390612b9a565b60405180910390fd5b600360008373ffffffffffffffffffffffffffffffffffffffff1673ffffffffffffffffffffffffffffffffffffffff168152602001908152602001600020549050919050565b610c6b611293565b73ffffffffffffffffffffffffffffffffffffffff16610c89610ceb565b73ffffffffffffffffffffffffffffffffffffffff1614610cdf576040517f08c379a0000000000000000000000000000000000000000000000000000000008152600401610cd690612c1a565b60405180910390fd5b610ce96000611880565b565b6000600660009054906101000a900473ffffffffffffffffffffffffffffffffffffffff16905090565b606060018054610d2490612f7a565b80601f0160208091040260200160405190810160405280929190818152602001828054610d5090612f7a565b8015610d9d5780601f10610d7257610100808354040283529160200191610d9d565b820191906000526020600020905b815481529060010190602001808311610d8057829003601f168201915b5050505050905090565b610daf611293565b73ffffffffffffffffffffffffffffffffffffffff168273ffffffffffffffffffffffffffffffffffffffff161415610e1d576040517f08c379a0000000000000000000000000000000000000000000000000000000008152600401610e1490612b3a565b60405180910390fd5b8060056000610e2a611293565b73ffffffffffffffffffffffffffffffffffffffff1673ffffffffffffffffffffffffffffffffffffffff16815260200190815260200160002060008473ffffffffffffffffffffffffffffffffffffffff1673ffffffffffffffffffffffffffffffffffffffff16815260200190815260200160002060006101000a81548160ff0219169083151502179055508173ffffffffffffffffffffffffffffffffffffffff16610ed7611293565b73ffffffffffffffffffffffffffffffffffffffff167f17307eab39ab6107e8899845ad3d59bd9653f200f220920489ca2b5937696c3183604051610f1c9190612a7d565b60405180910390a35050565b610f39610f33611293565b83611546565b610f78576040517f08c379a0000000000000000000000000000000000000000000000000000000008152600401610f6f90612cda565b60405180910390fd5b610f8484848484611946565b50505050565b6060610f9582611227565b610fd4576040517f08c379a0000000000000000000000000000000000000000000000000000000008152600401610fcb90612c5a565b60405180910390fd5b6000610fde6119a2565b90506000815111610ffe5760405180602001604052806000815250611029565b8061100884611a34565b6040516020016110199291906129f2565b6040516020818303038152906040525b915050919050565b6000600560008473ffffffffffffffffffffffffffffffffffffffff1673ffffffffffffffffffffffffffffffffffffffff16815260200190815260200160002060008373ffffffffffffffffffffffffffffffffffffffff1673ffffffffffffffffffffffffffffffffffffffff16815260200190815260200160002060009054906101000a900460ff16905092915050565b6110cd611293565b73ffffffffffffffffffffffffffffffffffffffff166110eb610ceb565b73ffffffffffffffffffffffffffffffffffffffff1614611141576040517f08c379a000000000000000000000000000000000000000000000000000000000815260040161113890612c1a565b60405180910390fd5b600073ffffffffffffffffffffffffffffffffffffffff168173ffffffffffffffffffffffffffffffffffffffff1614156111b1576040517f08c379a00000000000000000000000000000000000000000000000000000000081526004016111a890612ada565b60405180910390fd5b6111ba81611880565b50565b60007f01ffc9a7000000000000000000000000000000000000000000000000000000007bffffffffffffffffffffffffffffffffffffffffffffffffffffffff1916827bffffffffffffffffffffffffffffffffffffffffffffffffffffffff1916149050919050565b60008073ffffffffffffffffffffffffffffffffffffffff166002600084815260200190815260200160002060009054906101000a900473ffffffffffffffffffffffffffffffffffffffff1673ffffffffffffffffffffffffffffffffffffffff1614159050919050565b600033905090565b816004600083815260200190815260200160002060006101000a81548173ffffffffffffffffffffffffffffffffffffffff021916908373ffffffffffffffffffffffffffffffffffffffff160217905550808273ffffffffffffffffffffffffffffffffffffffff1661130e83610af9565b73ffffffffffffffffffffffffffffffffffffffff167f8c5be1e5ebec7d5bd14f71427d1e84f3dd0314c0f7b2291e5b200ac8c7c3b92560405160405180910390a45050565b600081600001549050919050565b600073ffffffffffffffffffffffffffffffffffffffff168273ffffffffffffffffffffffffffffffffffffffff1614156113d2576040517f08c379a00000000000000000000000000000000000000000000000000000000081526004016113c990612bda565b60405180910390fd5b6113db81611227565b1561141b576040517f08c379a000000000000000000000000000000000000000000000000000000000815260040161141290612afa565b60405180910390fd5b61142760008383611be1565b6001600360008473ffffffffffffffffffffffffffffffffffffffff1673ffffffffffffffffffffffffffffffffffffffff16815260200190815260200160002060008282546114779190612e09565b92505081905550816002600083815260200190815260200160002060006101000a81548173ffffffffffffffffffffffffffffffffffffffff021916908373ffffffffffffffffffffffffffffffffffffffff160217905550808273ffffffffffffffffffffffffffffffffffffffff16600073ffffffffffffffffffffffffffffffffffffffff167fddf252ad1be2c89b69c2b068fc378daa952ba7f163c4a11628f55a4df523b3ef60405160405180910390a45050565b6001816000016000828254019250508190555050565b600061155182611227565b611590576040517f08c379a000000000000000000000000000000000000000000000000000000000815260040161158790612b5a565b60405180910390fd5b600061159b83610af9565b90508073ffffffffffffffffffffffffffffffffffffffff168473ffffffffffffffffffffffffffffffffffffffff16148061160a57508373ffffffffffffffffffffffffffffffffffffffff166115f284610657565b73ffffffffffffffffffffffffffffffffffffffff16145b8061161b575061161a8185611031565b5b91505092915050565b8273ffffffffffffffffffffffffffffffffffffffff1661164482610af9565b73ffffffffffffffffffffffffffffffffffffffff161461169a576040517f08c379a000000000000000000000000000000000000000000000000000000000815260040161169190612c3a565b60405180910390fd5b600073ffffffffffffffffffffffffffffffffffffffff168273ffffffffffffffffffffffffffffffffffffffff16141561170a576040517f08c379a000000000000000000000000000000000000000000000000000000000815260040161170190612b1a565b60405180910390fd5b611715838383611be1565b61172060008261129b565b6001600360008573ffffffffffffffffffffffffffffffffffffffff1673ffffffffffffffffffffffffffffffffffffffff16815260200190815260200160002060008282546117709190612e90565b925050819055506001600360008473ffffffffffffffffffffffffffffffffffffffff1673ffffffffffffffffffffffffffffffffffffffff16815260200190815260200160002060008282546117c79190612e09565b92505081905550816002600083815260200190815260200160002060006101000a81548173ffffffffffffffffffffffffffffffffffffffff021916908373ffffffffffffffffffffffffffffffffffffffff160217905550808273ffffffffffffffffffffffffffffffffffffffff168473ffffffffffffffffffffffffffffffffffffffff167fddf252ad1be2c89b69c2b068fc378daa952ba7f163c4a11628f55a4df523b3ef60405160405180910390a4505050565b6000600660009054906101000a900473ffffffffffffffffffffffffffffffffffffffff16905081600660006101000a81548173ffffffffffffffffffffffffffffffffffffffff021916908373ffffffffffffffffffffffffffffffffffffffff1602179055508173ffffffffffffffffffffffffffffffffffffffff168173ffffffffffffffffffffffffffffffffffffffff167f8be0079c531659141344cd1fd0a4f28419497f9722a3daafe3b4186f6b6457e060405160405180910390a35050565b611951848484611624565b61195d84848484611c60565b61199c576040517f08c379a000000000000000000000000000000000000000000000000000000000815260040161199390612aba565b60405180910390fd5b50505050565b6060600880546119b190612f7a565b80601f01602080910402602001604051908101604052809291908181526020018280546119dd90612f7a565b8015611a2a5780601f106119ff57610100808354040283529160200191611a2a565b820191906000526020600020905b815481529060010190602001808311611a0d57829003601f168201915b5050505050905090565b60606000821415611a7c576040518060400160405280600181526020017f30000000000000000000000000000000000000000000000000000000000000008152509050611bdc565b600082905060005b60008214611aae578080611a9790612fac565b915050600a82611aa79190612e5f565b9150611a84565b60008167ffffffffffffffff811115611af0577f4e487b7100000000000000000000000000000000000000000000000000000000600052604160045260246000fd5b6040519080825280601f01601f191660200182016040528015611b225781602001600182028036833780820191505090505b5090505b60008514611bd557600182611b3b9190612e90565b9150600a85611b4a9190612ff5565b6030611b569190612e09565b60f81b818381518110611b92577f4e487b7100000000000000000000000000000000000000000000000000000000600052603260045260246000fd5b60200101907effffffffffffffffffffffffffffffffffffffffffffffffffffffffffffff1916908160001a905350600a85611bce9190612e5f565b9450611b26565b8093505050505b919050565b611bec838383611df7565b600073ffffffffffffffffffffffffffffffffffffffff168373ffffffffffffffffffffffffffffffffffffffff1614611c5b576040517f08c379a0000000000000000000000000000000000000000000000000000000008152600401611c5290612cfa565b60405180910390fd5b505050565b6000611c818473ffffffffffffffffffffffffffffffffffffffff16611dfc565b15611dea578373ffffffffffffffffffffffffffffffffffffffff1663150b7a02611caa611293565b8786866040518563ffffffff1660e01b8152600401611ccc9493929190612a31565b602060405180830381600087803b158015611ce657600080fd5b505af1925050508015611d1757506040513d601f19601f82011682018060405250810190611d1491906121bb565b60015b611d9a573d8060008114611d47576040519150601f19603f3d011682016040523d82523d6000602084013e611d4c565b606091505b50600081511415611d92576040517f08c379a0000000000000000000000000000000000000000000000000000000008152600401611d8990612aba565b60405180910390fd5b805181602001fd5b63150b7a0260e01b7bffffffffffffffffffffffffffffffffffffffffffffffffffffffff1916817bffffffffffffffffffffffffffffffffffffffffffffffffffffffff191614915050611def565b600190505b949350505050565b505050565b600080823b905060008111915050919050565b828054611e1b90612f7a565b90600052602060002090601f016020900481019282611e3d5760008555611e84565b82601f10611e5657805160ff1916838001178555611e84565b82800160010185558215611e84579182015b82811115611e83578251825591602001919060010190611e68565b5b509050611e919190611e95565b5090565b5b80821115611eae576000816000905550600101611e96565b5090565b6000611ec5611ec084612d66565b612d35565b905082815260208101848484011115611edd57600080fd5b611ee8848285612f38565b509392505050565b6000611f03611efe84612d96565b612d35565b905082815260208101848484011115611f1b57600080fd5b611f26848285612f38565b509392505050565b600081359050611f3d816130f3565b92915050565b600081359050611f528161310a565b92915050565b600081359050611f6781613121565b92915050565b600081519050611f7c81613121565b92915050565b600082601f830112611f9357600080fd5b8135611fa3848260208601611eb2565b91505092915050565b600082601f830112611fbd57600080fd5b8135611fcd848260208601611ef0565b91505092915050565b600081359050611fe581613138565b92915050565b600060208284031215611ffd57600080fd5b600061200b84828501611f2e565b91505092915050565b6000806040838503121561202757600080fd5b600061203585828601611f2e565b925050602061204685828601611f2e565b9150509250929050565b60008060006060848603121561206557600080fd5b600061207386828701611f2e565b935050602061208486828701611f2e565b925050604061209586828701611fd6565b9150509250925092565b600080600080608085870312156120b557600080fd5b60006120c387828801611f2e565b94505060206120d487828801611f2e565b93505060406120e587828801611fd6565b925050606085013567ffffffffffffffff81111561210257600080fd5b61210e87828801611f82565b91505092959194509250565b6000806040838503121561212d57600080fd5b600061213b85828601611f2e565b925050602061214c85828601611f43565b9150509250929050565b6000806040838503121561216957600080fd5b600061217785828601611f2e565b925050602061218885828601611fd6565b9150509250929050565b6000602082840312156121a457600080fd5b60006121b284828501611f58565b91505092915050565b6000602082840312156121cd57600080fd5b60006121db84828501611f6d565b91505092915050565b6000602082840312156121f657600080fd5b600082013567ffffffffffffffff81111561221057600080fd5b61221c84828501611fac565b91505092915050565b60006020828403121561223757600080fd5b600061224584828501611fd6565b91505092915050565b61225781612ec4565b82525050565b61226681612ed6565b82525050565b600061227782612dc6565b6122818185612ddc565b9350612291818560208601612f47565b61229a816130e2565b840191505092915050565b60006122b082612dd1565b6122ba8185612ded565b93506122ca818560208601612f47565b6122d3816130e2565b840191505092915050565b60006122e982612dd1565b6122f38185612dfe565b9350612303818560208601612f47565b80840191505092915050565b600061231c603283612ded565b91507f4552433732313a207472616e7366657220746f206e6f6e20455243373231526560008301527f63656976657220696d706c656d656e74657200000000000000000000000000006020830152604082019050919050565b6000612382602683612ded565b91507f4f776e61626c653a206e6577206f776e657220697320746865207a65726f206160008301527f64647265737300000000000000000000000000000000000000000000000000006020830152604082019050919050565b60006123e8601c83612ded565b91507f4552433732313a20746f6b656e20616c7265616479206d696e746564000000006000830152602082019050919050565b6000612428602483612ded565b91507f4552433732313a207472616e7366657220746f20746865207a65726f2061646460008301527f72657373000000000000000000000000000000000000000000000000000000006020830152604082019050919050565b600061248e601983612ded565b91507f4552433732313a20617070726f766520746f2063616c6c6572000000000000006000830152602082019050919050565b60006124ce602c83612ded565b91507f4552433732313a206f70657261746f7220717565727920666f72206e6f6e657860008301527f697374656e7420746f6b656e00000000000000000000000000000000000000006020830152604082019050919050565b6000612534603883612ded565b91507f4552433732313a20617070726f76652063616c6c6572206973206e6f74206f7760008301527f6e6572206e6f7220617070726f76656420666f7220616c6c00000000000000006020830152604082019050919050565b600061259a602a83612ded565b91507f4552433732313a2062616c616e636520717565727920666f7220746865207a6560008301527f726f2061646472657373000000000000000000000000000000000000000000006020830152604082019050919050565b6000612600602983612ded565b91507f4552433732313a206f776e657220717565727920666f72206e6f6e657869737460008301527f656e7420746f6b656e00000000000000000000000000000000000000000000006020830152604082019050919050565b6000612666602083612ded565b91507f4552433732313a206d696e7420746f20746865207a65726f20616464726573736000830152602082019050919050565b60006126a6602c83612ded565b91507f4552433732313a20617070726f76656420717565727920666f72206e6f6e657860008301527f697374656e7420746f6b656e00000000000000000000000000000000000000006020830152604082019050919050565b600061270c602083612ded565b91507f4f776e61626c653a2063616c6c6572206973206e6f7420746865206f776e65726000830152602082019050919050565b600061274c602983612ded565b91507f4552433732313a207472616e73666572206f6620746f6b656e2074686174206960008301527f73206e6f74206f776e00000000000000000000000000000000000000000000006020830152604082019050919050565b60006127b2602f83612ded565b91507f4552433732314d657461646174613a2055524920717565727920666f72206e6f60008301527f6e6578697374656e7420746f6b656e00000000000000000000000000000000006020830152604082019050919050565b6000612818602183612ded565b91507f4552433732313a20617070726f76616c20746f2063757272656e74206f776e6560008301527f72000000000000000000000000000000000000000000000000000000000000006020830152604082019050919050565b600061287e602683612ded565b91507f416464726573732063616e206f6e6c792068617665206f6e65204c4556454c2060008301527f746f6b656e2100000000000000000000000000000000000000000000000000006020830152604082019050919050565b60006128e4601d83612ded565b91507f4164647265737320646f6573206e6f74206f776e206120746f6b656e210000006000830152602082019050919050565b6000612924603183612ded565b91507f4552433732313a207472616e736665722063616c6c6572206973206e6f74206f60008301527f776e6572206e6f7220617070726f7665640000000000000000000000000000006020830152604082019050919050565b600061298a602d83612ded565b91507f546f6b656e2063616e206f6e6c79206265207472616e7366657272656420647560008301527f72696e67206d696e74696e6721000000000000000000000000000000000000006020830152604082019050919050565b6129ec81612f2e565b82525050565b60006129fe82856122de565b9150612a0a82846122de565b91508190509392505050565b6000602082019050612a2b600083018461224e565b92915050565b6000608082019050612a46600083018761224e565b612a53602083018661224e565b612a6060408301856129e3565b8181036060830152612a72818461226c565b905095945050505050565b6000602082019050612a92600083018461225d565b92915050565b60006020820190508181036000830152612ab281846122a5565b905092915050565b60006020820190508181036000830152612ad38161230f565b9050919050565b60006020820190508181036000830152612af381612375565b9050919050565b60006020820190508181036000830152612b13816123db565b9050919050565b60006020820190508181036000830152612b338161241b565b9050919050565b60006020820190508181036000830152612b5381612481565b9050919050565b60006020820190508181036000830152612b73816124c1565b9050919050565b60006020820190508181036000830152612b9381612527565b9050919050565b60006020820190508181036000830152612bb38161258d565b9050919050565b60006020820190508181036000830152612bd3816125f3565b9050919050565b60006020820190508181036000830152612bf381612659565b9050919050565b60006020820190508181036000830152612c1381612699565b9050919050565b60006020820190508181036000830152612c33816126ff565b9050919050565b60006020820190508181036000830152612c538161273f565b9050919050565b60006020820190508181036000830152612c73816127a5565b9050919050565b60006020820190508181036000830152612c938161280b565b9050919050565b60006020820190508181036000830152612cb381612871565b9050919050565b60006020820190508181036000830152612cd3816128d7565b9050919050565b60006020820190508181036000830152612cf381612917565b9050919050565b60006020820190508181036000830152612d138161297d565b9050919050565b6000602082019050612d2f60008301846129e3565b92915050565b6000604051905081810181811067ffffffffffffffff82111715612d5c57612d5b6130b3565b5b8060405250919050565b600067ffffffffffffffff821115612d8157612d806130b3565b5b601f19601f8301169050602081019050919050565b600067ffffffffffffffff821115612db157612db06130b3565b5b601f19601f8301169050602081019050919050565b600081519050919050565b600081519050919050565b600082825260208201905092915050565b600082825260208201905092915050565b600081905092915050565b6000612e1482612f2e565b9150612e1f83612f2e565b9250827fffffffffffffffffffffffffffffffffffffffffffffffffffffffffffffffff03821115612e5457612e53613026565b5b828201905092915050565b6000612e6a82612f2e565b9150612e7583612f2e565b925082612e8557612e84613055565b5b828204905092915050565b6000612e9b82612f2e565b9150612ea683612f2e565b925082821015612eb957612eb8613026565b5b828203905092915050565b6000612ecf82612f0e565b9050919050565b60008115159050919050565b60007fffffffff0000000000000000000000000000000000000000000000000000000082169050919050565b600073ffffffffffffffffffffffffffffffffffffffff82169050919050565b6000819050919050565b82818337600083830152505050565b60005b83811015612f65578082015181840152602081019050612f4a565b83811115612f74576000848401525b50505050565b60006002820490506001821680612f9257607f821691505b60208210811415612fa657612fa5613084565b5b50919050565b6000612fb782612f2e565b91507fffffffffffffffffffffffffffffffffffffffffffffffffffffffffffffffff821415612fea57612fe9613026565b5b600182019050919050565b600061300082612f2e565b915061300b83612f2e565b92508261301b5761301a613055565b5b828206905092915050565b7f4e487b7100000000000000000000000000000000000000000000000000000000600052601160045260246000fd5b7f4e487b7100000000000000000000000000000000000000000000000000000000600052601260045260246000fd5b7f4e487b7100000000000000000000000000000000000000000000000000000000600052602260045260246000fd5b7f4e487b7100000000000000000000000000000000000000000000000000000000600052604160045260246000fd5b6000601f19601f8301169050919050565b6130fc81612ec4565b811461310757600080fd5b50565b61311381612ed6565b811461311e57600080fd5b50565b61312a81612ee2565b811461313557600080fd5b50565b61314181612f2e565b811461314c57600080fd5b5056fea26469706673582212209fe0d42a906465e72b606cd79778b3f761154f21ad21f29d0043d36889481bd464736f6c63430008000033",
  "linkReferences": {},
  "deployedLinkReferences": {}
}